:060000000A128A110C280F
:10000800FE00030EF4000A08F5000A128A1162289D
:100018000A128A110F28F601F70183010A128A11C0
:10002800A12801308316031788008901013083163F
:100038000313850083120313850107308316031306
:100048008600831203138601831603138113951404
:100058001514870188018312031387018801831609
:1000680003130F088F3960388F000F14831203139E
:100078001F083F3940389F00831603131F129F1231
:10008800C330831203139F05831603139F13831230
:1000980003131F140C3083120313A000A00B522863
:1000A8000000831203130C13831603130C170B178A
:1000B8008B178B15161416150B10080083120313D3
:1000C8000C1F6728682878281F0CF200720C0F395B
:1000D800003A031D7028712877281E0887001E081B
:1000E800F2007208F6000C130B1C7B287C289A2857
:1000F80006187F28802889280D30F300FB30F2008D
:10010800F20B8428F30B842889280B10831203131D
:10011800061D8F2890289A287608F2007208F000A9
:1001280077080A128A11CF200A128A1175088A00E4
:10013800740E8300FE0E7E0E09000A128A11152025
:100148000A128A11403083120313A1002108F70014
:1001580077080A128A11E4200A128A1183120313FB
:1001680088009F18B828B928BA289F140D30831220
:100178000313A200FB30A100A10BC028A20BC028CA
:10018800831203138618C928CA28AC286300AC2830
:100198000A128A110C28F1007108831203178D00C6
:1001A80070088C00831603178C130C158B135530AD
:1001B8008D00AA308D008C140C110B108B170800C1
:1001C80083120313A0002008831203178D008316DF
:0E01D80003178C130C14831203170C08080075
:08400000FF3FFF3FFF3FFF3FC0
:04400E00D420FF3F7C
:00000001FF
